:020000040000FA
:040000007CEF7DF024
:10FAA400800F810F820F830F840F890F8A0F8B0FB2
:10FAB4008C0F8D0F920F930F940F950F960F322288
:10FAC4001202220E316E000E326E3EEC7EF0210EDA
:10FAD400316E000E326E3EEC7EF0200E316E000E62
:10FAE400326E3EEC7EF01F0E316E000E326E3EEC36
:10FAF4007EF01200A40EF66EFA0EF76E000EF86E8B
:10FB040000EE01F010EE22F00900F5CFEEFFE55013
:10FB1400E150FAE13C6A3B6A3A6A396A000EF86ECF
:10FB240000017CEF7EF02D502E10D8B49CEF7DF0B8
:10FB34009EEF7DF0AFEF7DF02DC0D9FF2EC0DAFF30
:10FB4400DF30E832E832070B2F6E070E2F64ADEF7B
:10FB54007DF0AFEF7DF0B1EF7DF0C7EF7DF02DC00C
:10FB640023F02EC024F05EEC7FF0306E2DC023F025
:10FB74002EC024F02DC0D9FF2EC0DAFF000EDFBE48
:10FB8400010E256EC8EC7EF0306E12002D502E1042
:10FB9400D8A4CFEF7DF0D1EF7DF0D3EF7DF002EF6D
:10FBA4007EF03AC031F02DC0D9FF2EC0DAFFDF500D
:10FBB4000F0B2F6E31502F18F80B2F18316E2DC0EC
:10FBC400D9FF2EC0DAFFDF38070B2F6E2F462F46E2
:10FBD4002F4631502F18C70B2F18316E319C2DC072
:10FBE400D9FF2EC0DAFFDFAE02D0318E01D0319EB4
:10FBF400310E236E000E246E000E256EC8EC7EF0CE
:10FC040012002D502E10D8A40AEF7EF00CEF7EF0D7
:10FC14000EEF7EF03DEF7EF03BC031F02DC0D9FFFA
:10FC24002EC0DAFFDF500F0B2F6E31502F18F80B58
:10FC34002F18316E2DC0D9FF2EC0DAFFDF38070B25
:10FC44002F6E2F462F462F4631502F18C70B2F18D3
:10FC5400316E319C2DC0D9FF2EC0DAFFDFAE02D049
:10FC6400318E01D0319E310E236E000E246E010EB2
:10FC7400256EC8EC7EF01200010E346E3150321045
:10FC8400D8A447EF7EF049EF7EF04DEF7EF0000EF2
:10FC9400346E7AEF7EF03CC035F031C0D9FF32C00B
:10FCA400DAFFDF500F0B336E35503318F80B33186F
:10FCB400356E31C0D9FF32C0DAFFDF38070B336E3F
:10FCC40033463346334635503318C70B3318356E35
:10FCD400359C31C0D9FF32C0DAFFDFAE02D0358E99
:10FCE40001D0359E350E2D6E000E2E6E95EC7DF0F6
:10FCF4003450120063EC7DF0220E2D6E000E2E6E39
:10FD040003EC7EF0210E2D6E000E2E6E03EC7EF0C1
:10FD1400200E2D6E000E2E6E03EC7EF01F0E2D6E47
:10FD2400000E2E6E03EC7EF0030E386E8A0E376ED4
:10FD3400560EE82EFED7372EFCD7382EFAD7220ED1
:10FD44002D6E000E2E6EC8EC7DF0210E2D6E000E71
:10FD54002E6EC8EC7DF0200E2D6E000E2E6EC8ECBB
:10FD64007DF01F0E2D6E000E2E6EC8EC7DF0030E7E
:10FD7400386E8A0E376E560EE82EFED7372EFCD715
:10FD8400382EFAD77EEF7EF000EF00F0010E2C6ED5
:10FD940023502410D8B4D1EF7EF0D3EF7EF0E4EFFB
:10FDA4007EF023C0D9FF24C0DAFFDF30E832E83226
:10FDB400070B266E070E2664E2EF7EF0E4EF7EF07A
:10FDC40047EF7FF0000E2C6E5CEF7FF023C0D9FF6D
:10FDD40024C0DAFFDF30E832E832070B266E010E6A
:10FDE400276E262AF8EF7EF0D8902736262EF6EFD7
:10FDF4007EF02750FF0A286E23C0D9FF24C0DAFF03
:10FE0400DF50070B296E2950020D0B0EF324D96E17
:10FE1400000EF420DA6EDECF2AF0DDCF2BF02AC0FC
:10FE2400D9FF2BC0DAFF2850DF165CEF7FF023C028
:10FE3400D9FF24C0DAFFDF30E832E832070B266E40
:10FE4400010E276E262A29EF7FF0D8902736262E1A
:10FE540027EF7FF023C0D9FF24C0DAFFDF50070B60
:10FE6400286E2850020D0B0EF324D96E000EF420D8
:10FE7400DA6EDECF29F0DDCF2AF029C0D9FF2AC0FF
:10FE8400DAFF2750DF125CEF7FF02550266E276AD9
:10FE94002750000AD8B451EF7FF0E4EF7EF02650EB
:10FEA400000AD8B4E8EF7EF0010AD8B419EF7FF065
:10FEB400E4EF7EF02C501200010E2B6E2350241020
:10FEC400D8B467EF7FF069EF7FF07AEF7FF023C05B
:10FED400D9FF24C0DAFFDF30E832E832070B256EA1
:10FEE400070E256478EF7FF07AEF7FF0DDEF7FF087
:10FEF400000E2B6EFEEF7FF023C0D9FF24C0DAFF83
:10FF0400DF30E832E832070B256E010E266E252A13
:10FF14008EEF7FF0D8902636252E8CEF7FF026507A
:10FF2400FF0A276E23C0D9FF24C0DAFFDF50070B76
:10FF3400286E2850020D150EF324D96E000EF420FD
:10FF4400DA6EDECF29F0DDCF2AF029C0D9FF2AC02E
:10FF5400DAFF2750DF16FEEF7FF023C0D9FF24C05D
:10FF6400DAFFDF30E832E832070B256E010E266E29
:10FF7400252ABFEF7FF0D8902636252EBDEF7FF0DF
:10FF840023C0D9FF24C0DAFFDF50070B276E2750A8
:10FF9400020D150EF324D96E000EF420DA6EDECFB6
:10FFA40028F0DDCF29F028C0D9FF29C0DAFF265078
:10FFB400DF12FEEF7FF023C0D9FF24C0DAFFDFBCDD
:10FFC400E6EF7FF0E9EF7FF0010EEAEF7FF0000E3D
:10FFD400256E266A2650000AD8B4F3EF7FF07AEF34
:10FFE4007FF02550000AD8B47EEF7FF0010AD8B420
:0CFFF400AFEF7FF07AEF7FF02B5012008F
:020000040020DA
:08000000FFFFFFFFFFFFFFFF00
:020000040030CA
:0E000000FF021F1EFF8181FF0FC00FE00F40A7
:00000001FF
